{
  "contractName": "CourseMarketplace",
  "abi": [
    {
      "inputs": [],
      "stateMutability": "nonpayable",
      "type": "constructor"
    },
    {
      "inputs": [],
      "name": "CourseHasOwner",
      "type": "error"
    },
    {
      "inputs": [],
      "name": "CourseIsNotCreated",
      "type": "error"
    },
    {
      "inputs": [],
      "name": "InvalidState",
      "type": "error"
    },
    {
      "inputs": [],
      "name": "OnlyOwner",
      "type": "error"
    },
    {
      "inputs": [],
      "name": "SenderIsNotCourseOwner",
      "type": "error"
    },
    {
      "inputs": [],
      "name": "isStopped",
      "outputs": [
        {
          "internalType": "bool",
          "name": "",
          "type": "bool"
        }
      ],
      "stateMutability": "view",
      "type": "function",
      "constant": true
    },
    {
      "stateMutability": "payable",
      "type": "receive",
      "payable": true
    },
    {
      "inputs": [
        {
          "internalType": "uint256",
          "name": "amount",
          "type": "uint256"
        }
      ],
      "name": "withdraw",
      "outputs": [],
      "stateMutability": "nonpayable",
      "type": "function"
    },
    {
      "inputs": [],
      "name": "emergencyWithdraw",
      "outputs": [],
      "stateMutability": "nonpayable",
      "type": "function"
    },
    {
      "inputs": [],
      "name": "selfDestruct",
      "outputs": [],
      "stateMutability": "nonpayable",
      "type": "function"
    },
    {
      "inputs": [],
      "name": "stopContract",
      "outputs": [],
      "stateMutability": "nonpayable",
      "type": "function"
    },
    {
      "inputs": [],
      "name": "resumeContract",
      "outputs": [],
      "stateMutability": "nonpayable",
      "type": "function"
    },
    {
      "inputs": [
        {
          "internalType": "bytes16",
          "name": "courseId",
          "type": "bytes16"
        },
        {
          "internalType": "bytes32",
          "name": "proof",
          "type": "bytes32"
        }
      ],
      "name": "purchaseCourse",
      "outputs": [],
      "stateMutability": "payable",
      "type": "function",
      "payable": true
    },
    {
      "inputs": [
        {
          "internalType": "bytes32",
          "name": "courseHash",
          "type": "bytes32"
        }
      ],
      "name": "repurchaseCourse",
      "outputs": [],
      "stateMutability": "payable",
      "type": "function",
      "payable": true
    },
    {
      "inputs": [
        {
          "internalType": "bytes32",
          "name": "courseHash",
          "type": "bytes32"
        }
      ],
      "name": "activateCourse",
      "outputs": [],
      "stateMutability": "nonpayable",
      "type": "function"
    },
    {
      "inputs": [
        {
          "internalType": "bytes32",
          "name": "courseHash",
          "type": "bytes32"
        }
      ],
      "name": "deactivateCourse",
      "outputs": [],
      "stateMutability": "nonpayable",
      "type": "function"
    },
    {
      "inputs": [
        {
          "internalType": "address",
          "name": "newOwner",
          "type": "address"
        }
      ],
      "name": "transferOwnerShip",
      "outputs": [],
      "stateMutability": "nonpayable",
      "type": "function"
    },
    {
      "inputs": [],
      "name": "getCourseCount",
      "outputs": [
        {
          "internalType": "uint256",
          "name": "",
          "type": "uint256"
        }
      ],
      "stateMutability": "view",
      "type": "function",
      "constant": true
    },
    {
      "inputs": [
        {
          "internalType": "uint256",
          "name": "index",
          "type": "uint256"
        }
      ],
      "name": "getCourseHashAtIndex",
      "outputs": [
        {
          "internalType": "bytes32",
          "name": "",
          "type": "bytes32"
        }
      ],
      "stateMutability": "view",
      "type": "function",
      "constant": true
    },
    {
      "inputs": [
        {
          "internalType": "bytes32",
          "name": "courseHash",
          "type": "bytes32"
        }
      ],
      "name": "getCourseByHash",
      "outputs": [
        {
          "components": [
            {
              "internalType": "uint256",
              "name": "id",
              "type": "uint256"
            },
            {
              "internalType": "uint256",
              "name": "price",
              "type": "uint256"
            },
            {
              "internalType": "bytes32",
              "name": "proof",
              "type": "bytes32"
            },
            {
              "internalType": "address",
              "name": "owner",
              "type": "address"
            },
            {
              "internalType": "enum CourseMarketplace.State",
              "name": "state",
              "type": "uint8"
            }
          ],
          "internalType": "struct CourseMarketplace.Course",
          "name": "",
          "type": "tuple"
        }
      ],
      "stateMutability": "view",
      "type": "function",
      "constant": true
    },
    {
      "inputs": [],
      "name": "getContractOwner",
      "outputs": [
        {
          "internalType": "address",
          "name": "",
          "type": "address"
        }
      ],
      "stateMutability": "view",
      "type": "function",
      "constant": true
    }
  ],
  "bytecode": "0x608060405260008060006101000a81548160ff02191690831515021790555034801561002a57600080fd5b5061003a3361003f60201b60201c565b610083565b80600460006101000a81548173ffffffffffffffffffffffffffffffffffffffff021916908373ffffffffffffffffffffffffffffffffffffffff16021790555050565b611d4f806100926000396000f3fe6080604052600436106100ec5760003560e01c80636d11290b1161008a5780639cb8a26a116100595780639cb8a26a146102ca578063c4bc5da5146102e1578063d76821cb146102f8578063db2e21bc14610314576100f3565b80636d11290b146102105780638863dd1a1461024d578063935d7e6d1461027657806396cfda061461029f576100f3565b80633f683b6a116100c65780633f683b6a14610161578063442890d51461018c5780636136e1eb146101b757806362e4e6ac146101d3576100f3565b806312253a6c146100f85780632e1a7d4d1461010f5780633926257214610138576100f3565b366100f357005b600080fd5b34801561010457600080fd5b5061010d61032b565b005b34801561011b57600080fd5b50610136600480360381019061013191906115e9565b6103b3565b005b34801561014457600080fd5b5061015f600480360381019061015a91906115c0565b6104f1565b005b34801561016d57600080fd5b50610176610713565b6040516101839190611871565b60405180910390f35b34801561019857600080fd5b506101a1610724565b6040516101ae9190611856565b60405180910390f35b6101d160048036038101906101cc91906115c0565b61074e565b005b3480156101df57600080fd5b506101fa60048036038101906101f591906115c0565b61094b565b6040516102079190611967565b60405180910390f35b34801561021c57600080fd5b50610237600480360381019061023291906115e9565b610a73565b604051610244919061188c565b60405180910390f35b34801561025957600080fd5b50610274600480360381019061026f919061155b565b610a90565b005b34801561028257600080fd5b5061029d600480360381019061029891906115c0565b610b08565b005b3480156102ab57600080fd5b506102b4610e1b565b6040516102c19190611982565b60405180910390f35b3480156102d657600080fd5b506102df610e25565b005b3480156102ed57600080fd5b506102f6610f19565b005b610312600480360381019061030d9190611584565b610fa1565b005b34801561032057600080fd5b506103296111dc565b005b610333610724565b73ffffffffffffffffffffffffffffffffffffffff163373ffffffffffffffffffffffffffffffffffffffff1614610397576040517f5fc483c500000000000000000000000000000000000000000000000000000000815260040160405180910390fd5b60016000806101000a81548160ff021916908315150217905550565b6103bb610724565b73ffffffffffffffffffffffffffffffffffffffff163373ffffffffffffffffffffffffffffffffffffffff161461041f576040517f5fc483c500000000000000000000000000000000000000000000000000000000815260040160405180910390fd5b6000600460009054906101000a900473ffffffffffffffffffffffffffffffffffffffff1673ffffffffffffffffffffffffffffffffffffffff168260405161046790611841565b60006040518083038185875af1925050503d80600081146104a4576040519150601f19603f3d011682016040523d82523d6000602084013e6104a9565b606091505b50509050806104ed576040517f08c379a00000000000000000000000000000000000000000000000000000000081526004016104e490611927565b60405180910390fd5b5050565b60008054906101000a900460ff161561053f576040517f08c379a0000000000000000000000000000000000000000000000000000000008152600401610536906118c7565b60405180910390fd5b610547610724565b73ffffffffffffffffffffffffffffffffffffffff163373ffffffffffffffffffffffffffffffffffffffff16146105ab576040517f5fc483c500000000000000000000000000000000000000000000000000000000815260040160405180910390fd5b6105b481611366565b6105ea576040517f4db0c48300000000000000000000000000000000000000000000000000000000815260040160405180910390fd5b60006001600083815260200190815260200160002090506000600281111561063b577f4e487b7100000000000000000000000000000000000000000000000000000000600052602160045260246000fd5b8160030160149054906101000a900460ff166002811115610685577f4e487b7100000000000000000000000000000000000000000000000000000000600052602160045260246000fd5b146106bc576040517fbaf3f0f700000000000000000000000000000000000000000000000000000000815260040160405180910390fd5b60018160030160146101000a81548160ff0219169083600281111561070a577f4e487b7100000000000000000000000000000000000000000000000000000000600052602160045260246000fd5b02179055505050565b60008054906101000a900460ff1681565b6000600460009054906101000a900473ffffffffffffffffffffffffffffffffffffffff16905090565b60008054906101000a900460ff161561079c576040517f08c379a0000000000000000000000000000000000000000000000000000000008152600401610793906118c7565b60405180910390fd5b6107a581611366565b6107db576040517f4db0c48300000000000000000000000000000000000000000000000000000000815260040160405180910390fd5b6107e4816113d5565b61081a576040517fcce31cc400000000000000000000000000000000000000000000000000000000815260040160405180910390fd5b600060016000838152602001908152602001600020905060028081111561086a577f4e487b7100000000000000000000000000000000000000000000000000000000600052602160045260246000fd5b8160030160149054906101000a900460ff1660028111156108b4577f4e487b7100000000000000000000000000000000000000000000000000000000600052602160045260246000fd5b146108eb576040517fbaf3f0f700000000000000000000000000000000000000000000000000000000815260040160405180910390fd5b60008160030160146101000a81548160ff02191690836002811115610939577f4e487b7100000000000000000000000000000000000000000000000000000000600052602160045260246000fd5b02179055503481600101819055505050565b610953611487565b600160008381526020019081526020016000206040518060a00160405290816000820154815260200160018201548152602001600282015481526020016003820160009054906101000a900473ffffffffffffffffffffffffffffffffffffffff1673ffffffffffffffffffffffffffffffffffffffff1673ffffffffffffffffffffffffffffffffffffffff1681526020016003820160149054906101000a900460ff166002811115610a30577f4e487b7100000000000000000000000000000000000000000000000000000000600052602160045260246000fd5b6002811115610a68577f4e487b7100000000000000000000000000000000000000000000000000000000600052602160045260246000fd5b815250509050919050565b600060026000838152602001908152602001600020549050919050565b610a98610724565b73ffffffffffffffffffffffffffffffffffffffff163373ffffffffffffffffffffffffffffffffffffffff1614610afc576040517f5fc483c500000000000000000000000000000000000000000000000000000000815260040160405180910390fd5b610b0581611443565b50565b60008054906101000a900460ff1615610b56576040517f08c379a0000000000000000000000000000000000000000000000000000000008152600401610b4d906118c7565b60405180910390fd5b610b5e610724565b73ffffffffffffffffffffffffffffffffffffffff163373ffffffffffffffffffffffffffffffffffffffff1614610bc2576040517f5fc483c500000000000000000000000000000000000000000000000000000000815260040160405180910390fd5b610bcb81611366565b610c0a576040517f08c379a0000000000000000000000000000000000000000000000000000000008152600401610c01906118a7565b60405180910390fd5b600060016000838152602001908152602001600020905060006002811115610c5b577f4e487b7100000000000000000000000000000000000000000000000000000000600052602160045260246000fd5b8160030160149054906101000a900460ff166002811115610ca5577f4e487b7100000000000000000000000000000000000000000000000000000000600052602160045260246000fd5b14610ce5576040517f08c379a0000000000000000000000000000000000000000000000000000000008152600401610cdc90611907565b60405180910390fd5b60008160030160009054906101000a900473ffffffffffffffffffffffffffffffffffffffff1673ffffffffffffffffffffffffffffffffffffffff168260010154604051610d3390611841565b60006040518083038185875af1925050503d8060008114610d70576040519150601f19603f3d011682016040523d82523d6000602084013e610d75565b606091505b5050905080610db9576040517f08c379a0000000000000000000000000000000000000000000000000000000008152600401610db090611947565b60405180910390fd5b60028260030160146101000a81548160ff02191690836002811115610e07577f4e487b7100000000000000000000000000000000000000000000000000000000600052602160045260246000fd5b021790555060008260010181905550505050565b6000600354905090565b60008054906101000a900460ff16610e72576040517f08c379a0000000000000000000000000000000000000000000000000000000008152600401610e69906118e7565b60405180910390fd5b610e7a610724565b73ffffffffffffffffffffffffffffffffffffffff163373ffffffffffffffffffffffffffffffffffffffff1614610ede576040517f5fc483c500000000000000000000000000000000000000000000000000000000815260040160405180910390fd5b600460009054906101000a900473ffffffffffffffffffffffffffffffffffffffff1673ffffffffffffffffffffffffffffffffffffffff16ff5b610f21610724565b73ffffffffffffffffffffffffffffffffffffffff163373ffffffffffffffffffffffffffffffffffffffff1614610f85576040517f5fc483c500000000000000000000000000000000000000000000000000000000815260040160405180910390fd5b60008060006101000a81548160ff021916908315150217905550565b60008054906101000a900460ff1615610fef576040517f08c379a0000000000000000000000000000000000000000000000000000000008152600401610fe6906118c7565b60405180910390fd5b60008233604051602001611004929190611815565b604051602081830303815290604052805190602001209050611025816113d5565b1561105c576040517fb0fc2d9700000000000000000000000000000000000000000000000000000000815260040160405180910390fd5b60006003600081548092919061107190611a5c565b9190505590508160026000838152602001908152602001600020819055506040518060a001604052808281526020013481526020018481526020013373ffffffffffffffffffffffffffffffffffffffff16815260200160006002811115611102577f4e487b7100000000000000000000000000000000000000000000000000000000600052602160045260246000fd5b8152506001600084815260200190815260200160002060008201518160000155602082015181600101556040820151816002015560608201518160030160006101000a81548173ffffffffffffffffffffffffffffffffffffffff021916908373ffffffffffffffffffffffffffffffffffffffff16021790555060808201518160030160146101000a81548160ff021916908360028111156111ce577f4e487b7100000000000000000000000000000000000000000000000000000000600052602160045260246000fd5b021790555090505050505050565b60008054906101000a900460ff16611229576040517f08c379a0000000000000000000000000000000000000000000000000000000008152600401611220906118e7565b60405180910390fd5b611231610724565b73ffffffffffffffffffffffffffffffffffffffff163373ffffffffffffffffffffffffffffffffffffffff1614611295576040517f5fc483c500000000000000000000000000000000000000000000000000000000815260040160405180910390fd5b6000600460009054906101000a900473ffffffffffffffffffffffffffffffffffffffff1673ffffffffffffffffffffffffffffffffffffffff16476040516112dd90611841565b60006040518083038185875af1925050503d806000811461131a576040519150601f19603f3d011682016040523d82523d6000602084013e61131f565b606091505b5050905080611363576040517f08c379a000000000000000000000000000000000000000000000000000000000815260040161135a90611927565b60405180910390fd5b50565b60008073ffffffffffffffffffffffffffffffffffffffff166001600084815260200190815260200160002060030160009054906101000a900473ffffffffffffffffffffffffffffffffffffffff1673ffffffffffffffffffffffffffffffffffffffff1614159050919050565b60003373ffffffffffffffffffffffffffffffffffffffff166001600084815260200190815260200160002060030160009054906101000a900473ffffffffffffffffffffffffffffffffffffffff1673ffffffffffffffffffffffffffffffffffffffff16149050919050565b80600460006101000a81548173ffffffffffffffffffffffffffffffffffffffff021916908373ffffffffffffffffffffffffffffffffffffffff16021790555050565b6040518060a00160405280600081526020016000815260200160008019168152602001600073ffffffffffffffffffffffffffffffffffffffff16815260200160006002811115611501577f4e487b7100000000000000000000000000000000000000000000000000000000600052602160045260246000fd5b81525090565b60008135905061151681611cbd565b92915050565b60008135905061152b81611cd4565b92915050565b60008135905061154081611ceb565b92915050565b60008135905061155581611d02565b92915050565b60006020828403121561156d57600080fd5b600061157b84828501611507565b91505092915050565b6000806040838503121561159757600080fd5b60006115a58582860161151c565b92505060206115b685828601611531565b9150509250929050565b6000602082840312156115d257600080fd5b60006115e084828501611531565b91505092915050565b6000602082840312156115fb57600080fd5b600061160984828501611546565b91505092915050565b61161b816119b9565b82525050565b61162a816119b9565b82525050565b61164161163c826119b9565b611aa5565b82525050565b611650816119cb565b82525050565b611667611662826119d7565b611ab7565b82525050565b61167681611a03565b82525050565b61168581611a03565b82525050565b61169481611a4a565b82525050565b60006116a76016836119a8565b91506116b282611b3e565b602082019050919050565b60006116ca6022836119a8565b91506116d582611b67565b604082019050919050565b60006116ed6026836119a8565b91506116f882611bb6565b604082019050919050565b60006117106023836119a8565b915061171b82611c05565b604082019050919050565b60006117336012836119a8565b915061173e82611c54565b602082019050919050565b60006117566010836119a8565b915061176182611c7d565b602082019050919050565b600061177960008361199d565b915061178482611ca6565b600082019050919050565b60a0820160008201516117a560008501826117f7565b5060208201516117b860208501826117f7565b5060408201516117cb604085018261166d565b5060608201516117de6060850182611612565b5060808201516117f1608085018261168b565b50505050565b61180081611a40565b82525050565b61180f81611a40565b82525050565b60006118218285611656565b6010820191506118318284611630565b6014820191508190509392505050565b600061184c8261176c565b9150819050919050565b600060208201905061186b6000830184611621565b92915050565b60006020820190506118866000830184611647565b92915050565b60006020820190506118a1600083018461167c565b92915050565b600060208201905081810360008301526118c08161169a565b9050919050565b600060208201905081810360008301526118e0816116bd565b9050919050565b60006020820190508181036000830152611900816116e0565b9050919050565b6000602082019050818103600083015261192081611703565b9050919050565b6000602082019050818103600083015261194081611726565b9050919050565b6000602082019050818103600083015261196081611749565b9050919050565b600060a08201905061197c600083018461178f565b92915050565b60006020820190506119976000830184611806565b92915050565b600081905092915050565b600082825260208201905092915050565b60006119c482611a20565b9050919050565b60008115159050919050565b60007fffffffffffffffffffffffffffffffff0000000000000000000000000000000082169050919050565b6000819050919050565b6000819050611a1b82611ca9565b919050565b600073ffffffffffffffffffffffffffffffffffffffff82169050919050565b6000819050919050565b6000611a5582611a0d565b9050919050565b6000611a6782611a40565b91507fffffffffffffffffffffffffffffffffffffffffffffffffffffffffffffffff821415611a9a57611a99611ad3565b5b600182019050919050565b6000611ab082611ac1565b9050919050565b6000819050919050565b6000611acc82611b31565b9050919050565b7f4e487b7100000000000000000000000000000000000000000000000000000000600052601160045260246000fd5b7f4e487b7100000000000000000000000000000000000000000000000000000000600052602160045260246000fd5b60008160601b9050919050565b7f436f75727365206973206e6f7420637265617465642100000000000000000000600082015250565b7f54686520636f6e74726163742069732063757272656e746c792073746f70706560008201527f6421000000000000000000000000000000000000000000000000000000000000602082015250565b7f54686520636f6e7472616374206973206e6f742063757272656e746c7920737460008201527f6f70706564210000000000000000000000000000000000000000000000000000602082015250565b7f496e76616c696420737461746520666f7220636f75727365206163746976617460008201527f696f6e0000000000000000000000000000000000000000000000000000000000602082015250565b7f5769746864726177616c206661696c6564210000000000000000000000000000600082015250565b7f5472616e73666572206661696c65642100000000000000000000000000000000600082015250565b50565b60038110611cba57611cb9611b02565b5b50565b611cc6816119b9565b8114611cd157600080fd5b50565b611cdd816119d7565b8114611ce857600080fd5b50565b611cf481611a03565b8114611cff57600080fd5b50565b611d0b81611a40565b8114611d1657600080fd5b5056fea2646970667358221220d1c4566f9cd2eb8e3406382dd9b23e9d0491279a8f9fdc6c0779b6e5424232b364736f6c63430008040033",
  "immutableReferences": {},
  "source": "// SPDX-License-Identifier: MIT\npragma solidity >=0.4.22 <0.9.0;\n\ncontract CourseMarketplace{\n\n        enum State{\n            Purchased,\n            Activated,\n            Deactivated\n        }\n\n\n        struct Course{\n            uint id;\n            uint price;\n            bytes32 proof;\n            address owner;\n            State state;\n        }\n\n        bool public isStopped=false;\n\n\n        //mapping of the courseHash to Course data\n        mapping(bytes32=>Course) private ownedCourses;\n        //mapping of the courseId to courseHash \n        mapping(uint=>bytes32) private ownedCourseHash;\n\n        // Number of all courses + id of the course\n        uint private totalOwnedCourses;\n\n        address payable private owner;\n\n        constructor(){\n            setContractOwner(msg.sender);\n          \n        }\n\n        ///Sender is not course owner!    \n        error SenderIsNotCourseOwner();\n        ///Course already purchased!    \n        error CourseHasOwner();\n        ///Only owner has an access!    \n        error OnlyOwner();\n        ///Course is not created!  \n        error CourseIsNotCreated();\n        ///Invalid state for course modification!  \n        error InvalidState();\n\n        modifier onlyOwner(){\n            if(msg.sender!=getContractOwner()){\n                revert OnlyOwner();\n            }\n            // require(msg.sender==getContractOwner(),\"Only owner has an access\");\n            _;\n        }\n\n        modifier onlyWhenNotStopped(){\n            require(!isStopped,\"The contract is currently stopped!\");\n            _;\n        }\n        modifier onlyWhenStopped(){\n            require(isStopped,\"The contract is not currently stopped!\");\n            _;\n        }\n\n        receive()external payable{}\n\n        function withdraw(uint amount) external onlyOwner{\n           (bool success,) =owner.call{value:amount}(\"\");\n           require(success,\"Withdrawal failed!\");\n\n        }\n\n\n        function emergencyWithdraw() external onlyWhenStopped onlyOwner{\n           (bool success,) =owner.call{value:address(this).balance}(\"\");\n           require(success,\"Withdrawal failed!\");\n\n        }\n\n        function selfDestruct()external onlyWhenStopped onlyOwner{\n            selfdestruct(owner);\n        }\n\n\n        function stopContract() external onlyOwner{\n            isStopped=true;\n        }\n        function resumeContract() external onlyOwner{\n            isStopped=false;\n        }\n\n\n        // courseId - 10 - 0x00000000000000000000000000003130\n        // proof  - 0x0000000000000000000000000000313000000000000000000000000000003130\n        function purchaseCourse(bytes16 courseId,bytes32 proof)external payable onlyWhenNotStopped \n        {\n        bytes32 courseHash=keccak256(abi.encodePacked(courseId,msg.sender));\n\n        if(hasCourseOwnership(courseHash)){\n            revert CourseHasOwner();\n        }\n        // require(!hasCourseOwnership(courseHash),\"Course already purchased!\");\n\n        uint id = totalOwnedCourses++;\n        ownedCourseHash[id]=courseHash;\n        ownedCourses[courseHash]=Course({\n            id:id,\n            price:msg.value,\n            proof:proof,\n            owner:msg.sender,\n            state:State.Purchased\n        });\n        \n\n        }\n\n\n        function repurchaseCourse(bytes32 courseHash) external onlyWhenNotStopped payable {\n        if(!isCourseCreated(courseHash)){\n            revert CourseIsNotCreated();\n         }\n        if(!hasCourseOwnership(courseHash)){\n            revert SenderIsNotCourseOwner();\n\n        }\n\n        Course storage course = ownedCourses[courseHash];\n\n        if(course.state!=State.Deactivated){\n            revert InvalidState();\n        }\n        course.state=State.Purchased;\n        course.price=msg.value;\n\n        }\n\n        function activateCourse(bytes32 courseHash) external onlyWhenNotStopped onlyOwner {\n          if(!isCourseCreated(courseHash)){\n            revert CourseIsNotCreated();\n          }\n        // require(isCourseCreated(courseHash),\"Course is not created!\");\n        Course storage course = ownedCourses[courseHash];\n        if( course.state!=State.Purchased){\n            revert InvalidState();\n        }\n\n        // require(course.state==State.Purchased,\"Invalid state for course activation\");\n        course.state=State.Activated;\n        \n\n        }\n\n        function deactivateCourse(bytes32 courseHash) external onlyWhenNotStopped onlyOwner {\n        // if(!isCourseCreated(courseHash)){\n        //     revert CourseIsNotCreated();\n        // }\n        require(isCourseCreated(courseHash),\"Course is not created!\");\n        Course storage course = ownedCourses[courseHash];\n        // if(course.state!=State.Purchased){\n        //     revert InvalidState();\n        // }\n\n        require((course.state==State.Purchased),\"Invalid state for course activation\");\n\n        (bool success,)= course.owner.call{value: course.price}(\"\");\n        require(success,\"Transfer failed!\");\n\n        course.state=State.Deactivated;\n        course.price=0;\n        \n\n        }\n        function transferOwnerShip(address newOwner)external onlyOwner {\n            setContractOwner(newOwner);\n        }\n\n        function getCourseCount() external view returns(uint){\n            return totalOwnedCourses;\n        }\n\n        function getCourseHashAtIndex(uint index) external view returns(bytes32){\n        return ownedCourseHash[index];\n        } \n        function getCourseByHash(bytes32 courseHash) external view returns(Course memory){        \n        return ownedCourses[courseHash];\n        } \n        function getContractOwner() public view returns(address){\n            return owner;\n        }\n\n        function setContractOwner(address newOwner)private{\n            owner=payable(newOwner);\n        }\n\n        function isCourseCreated(bytes32 courseHash) private view returns(bool){\n        return ownedCourses[courseHash].owner !=0x0000000000000000000000000000000000000000;\n        }\n\n        function hasCourseOwnership(bytes32 courseHash) private view returns(bool){\n        return ownedCourses[courseHash].owner == msg.sender;\n        }\n}",
  "sourcePath": "P:\\BlockChain\\marketplace-eth\\contracts\\CourseMarketplace.sol",
  "compiler": {
    "name": "solc",
    "version": "0.8.4+commit.c7e474f2.Emscripten.clang"
  },
  "schemaVersion": "3.4.9",
  "updatedAt": "2022-08-30T07:35:15.713Z",
  "networkType": "ethereum",
  "devdoc": {
    "kind": "dev",
    "methods": {},
    "version": 1
  },
  "userdoc": {
    "errors": {
      "CourseHasOwner()": [
        {
          "notice": "Course already purchased!    "
        }
      ],
      "CourseIsNotCreated()": [
        {
          "notice": "Course is not created!  "
        }
      ],
      "InvalidState()": [
        {
          "notice": "Invalid state for course modification!  "
        }
      ],
      "OnlyOwner()": [
        {
          "notice": "Only owner has an access!    "
        }
      ],
      "SenderIsNotCourseOwner()": [
        {
          "notice": "Sender is not course owner!    "
        }
      ]
    },
    "kind": "user",
    "methods": {},
    "version": 1
  }
}