{
  "contractName": "CourseMarketplace",
  "abi": [
    {
      "inputs": [],
      "stateMutability": "nonpayable",
      "type": "constructor"
    },
    {
      "inputs": [],
      "name": "CourseHasOwner",
      "type": "error"
    },
    {
      "inputs": [],
      "name": "CourseIsNotCreated",
      "type": "error"
    },
    {
      "inputs": [],
      "name": "InvalidState",
      "type": "error"
    },
    {
      "inputs": [],
      "name": "OnlyOwner",
      "type": "error"
    },
    {
      "inputs": [],
      "name": "SenderIsNotCourseOwner",
      "type": "error"
    },
    {
      "inputs": [
        {
          "internalType": "bytes16",
          "name": "courseId",
          "type": "bytes16"
        },
        {
          "internalType": "bytes32",
          "name": "proof",
          "type": "bytes32"
        }
      ],
      "name": "purchaseCourse",
      "outputs": [],
      "stateMutability": "payable",
      "type": "function",
      "payable": true
    },
    {
      "inputs": [
        {
          "internalType": "bytes32",
          "name": "courseHash",
          "type": "bytes32"
        }
      ],
      "name": "repurchaseCourse",
      "outputs": [],
      "stateMutability": "payable",
      "type": "function",
      "payable": true
    },
    {
      "inputs": [
        {
          "internalType": "bytes32",
          "name": "courseHash",
          "type": "bytes32"
        }
      ],
      "name": "activateCourse",
      "outputs": [],
      "stateMutability": "nonpayable",
      "type": "function"
    },
    {
      "inputs": [
        {
          "internalType": "bytes32",
          "name": "courseHash",
          "type": "bytes32"
        }
      ],
      "name": "deactivateCourse",
      "outputs": [],
      "stateMutability": "nonpayable",
      "type": "function"
    },
    {
      "inputs": [
        {
          "internalType": "address",
          "name": "newOwner",
          "type": "address"
        }
      ],
      "name": "transferOwnerShip",
      "outputs": [],
      "stateMutability": "nonpayable",
      "type": "function"
    },
    {
      "inputs": [],
      "name": "getCourseCount",
      "outputs": [
        {
          "internalType": "uint256",
          "name": "",
          "type": "uint256"
        }
      ],
      "stateMutability": "view",
      "type": "function",
      "constant": true
    },
    {
      "inputs": [
        {
          "internalType": "uint256",
          "name": "index",
          "type": "uint256"
        }
      ],
      "name": "getCourseHashAtIndex",
      "outputs": [
        {
          "internalType": "bytes32",
          "name": "",
          "type": "bytes32"
        }
      ],
      "stateMutability": "view",
      "type": "function",
      "constant": true
    },
    {
      "inputs": [
        {
          "internalType": "bytes32",
          "name": "courseHash",
          "type": "bytes32"
        }
      ],
      "name": "getCourseByHash",
      "outputs": [
        {
          "components": [
            {
              "internalType": "uint256",
              "name": "id",
              "type": "uint256"
            },
            {
              "internalType": "uint256",
              "name": "price",
              "type": "uint256"
            },
            {
              "internalType": "bytes32",
              "name": "proof",
              "type": "bytes32"
            },
            {
              "internalType": "address",
              "name": "owner",
              "type": "address"
            },
            {
              "internalType": "enum CourseMarketplace.State",
              "name": "state",
              "type": "uint8"
            }
          ],
          "internalType": "struct CourseMarketplace.Course",
          "name": "",
          "type": "tuple"
        }
      ],
      "stateMutability": "view",
      "type": "function",
      "constant": true
    },
    {
      "inputs": [],
      "name": "getContractOwner",
      "outputs": [
        {
          "internalType": "address",
          "name": "",
          "type": "address"
        }
      ],
      "stateMutability": "view",
      "type": "function",
      "constant": true
    }
  ],
  "bytecode": "0x608060405234801561001057600080fd5b506100203361002560201b60201c565b610069565b80600360006101000a81548173ffffffffffffffffffffffffffffffffffffffff021916908373ffffffffffffffffffffffffffffffffffffffff16021790555050565b611450806100786000396000f3fe6080604052600436106100865760003560e01c80636d11290b116100595780636d11290b146101385780638863dd1a14610175578063935d7e6d1461019e57806396cfda06146101c7578063d76821cb146101f257610086565b8063392625721461008b578063442890d5146100b45780636136e1eb146100df57806362e4e6ac146100fb575b600080fd5b34801561009757600080fd5b506100b260048036038101906100ad9190610e87565b61020e565b005b3480156100c057600080fd5b506100c96103e1565b6040516100d691906110a5565b60405180910390f35b6100f960048036038101906100f49190610e87565b61040b565b005b34801561010757600080fd5b50610122600480360381019061011d9190610e87565b6105b9565b60405161012f919061113b565b60405180910390f35b34801561014457600080fd5b5061015f600480360381019061015a9190610eb0565b6106e0565b60405161016c91906110c0565b60405180910390f35b34801561018157600080fd5b5061019c60048036038101906101979190610e22565b6106fd565b005b3480156101aa57600080fd5b506101c560048036038101906101c09190610e87565b610775565b005b3480156101d357600080fd5b506101dc610a39565b6040516101e99190611156565b60405180910390f35b61020c60048036038101906102079190610e4b565b610a43565b005b6102166103e1565b73ffffffffffffffffffffffffffffffffffffffff163373ffffffffffffffffffffffffffffffffffffffff161461027a576040517f5fc483c500000000000000000000000000000000000000000000000000000000815260040160405180910390fd5b61028381610c2f565b6102b9576040517f4db0c48300000000000000000000000000000000000000000000000000000000815260040160405180910390fd5b6000806000838152602001908152602001600020905060006002811115610309577f4e487b7100000000000000000000000000000000000000000000000000000000600052602160045260246000fd5b8160030160149054906101000a900460ff166002811115610353577f4e487b7100000000000000000000000000000000000000000000000000000000600052602160045260246000fd5b1461038a576040517fbaf3f0f700000000000000000000000000000000000000000000000000000000815260040160405180910390fd5b60018160030160146101000a81548160ff021916908360028111156103d8577f4e487b7100000000000000000000000000000000000000000000000000000000600052602160045260246000fd5b02179055505050565b6000600360009054906101000a900473ffffffffffffffffffffffffffffffffffffffff16905090565b61041481610c2f565b61044a576040517f4db0c48300000000000000000000000000000000000000000000000000000000815260040160405180910390fd5b61045381610c9d565b610489576040517fcce31cc400000000000000000000000000000000000000000000000000000000815260040160405180910390fd5b600080600083815260200190815260200160002090506002808111156104d8577f4e487b7100000000000000000000000000000000000000000000000000000000600052602160045260246000fd5b8160030160149054906101000a900460ff166002811115610522577f4e487b7100000000000000000000000000000000000000000000000000000000600052602160045260246000fd5b14610559576040517fbaf3f0f700000000000000000000000000000000000000000000000000000000815260040160405180910390fd5b60008160030160146101000a81548160ff021916908360028111156105a7577f4e487b7100000000000000000000000000000000000000000000000000000000600052602160045260246000fd5b02179055503481600101819055505050565b6105c1610d4e565b6000808381526020019081526020016000206040518060a00160405290816000820154815260200160018201548152602001600282015481526020016003820160009054906101000a900473ffffffffffffffffffffffffffffffffffffffff1673ffffffffffffffffffffffffffffffffffffffff1673ffffffffffffffffffffffffffffffffffffffff1681526020016003820160149054906101000a900460ff16600281111561069d577f4e487b7100000000000000000000000000000000000000000000000000000000600052602160045260246000fd5b60028111156106d5577f4e487b7100000000000000000000000000000000000000000000000000000000600052602160045260246000fd5b815250509050919050565b600060016000838152602001908152602001600020549050919050565b6107056103e1565b73ffffffffffffffffffffffffffffffffffffffff163373ffffffffffffffffffffffffffffffffffffffff1614610769576040517f5fc483c500000000000000000000000000000000000000000000000000000000815260040160405180910390fd5b61077281610d0a565b50565b61077d6103e1565b73ffffffffffffffffffffffffffffffffffffffff163373ffffffffffffffffffffffffffffffffffffffff16146107e1576040517f5fc483c500000000000000000000000000000000000000000000000000000000815260040160405180910390fd5b6107ea81610c2f565b610829576040517f08c379a0000000000000000000000000000000000000000000000000000000008152600401610820906110db565b60405180910390fd5b6000806000838152602001908152602001600020905060006002811115610879577f4e487b7100000000000000000000000000000000000000000000000000000000600052602160045260246000fd5b8160030160149054906101000a900460ff1660028111156108c3577f4e487b7100000000000000000000000000000000000000000000000000000000600052602160045260246000fd5b14610903576040517f08c379a00000000000000000000000000000000000000000000000000000000081526004016108fa906110fb565b60405180910390fd5b60008160030160009054906101000a900473ffffffffffffffffffffffffffffffffffffffff1673ffffffffffffffffffffffffffffffffffffffff16826001015460405161095190611090565b60006040518083038185875af1925050503d806000811461098e576040519150601f19603f3d011682016040523d82523d6000602084013e610993565b606091505b50509050806109d7576040517f08c379a00000000000000000000000000000000000000000000000000000000081526004016109ce9061111b565b60405180910390fd5b60028260030160146101000a81548160ff02191690836002811115610a25577f4e487b7100000000000000000000000000000000000000000000000000000000600052602160045260246000fd5b021790555060008260010181905550505050565b6000600254905090565b60008233604051602001610a58929190611064565b604051602081830303815290604052805190602001209050610a7981610c9d565b15610ab0576040517fb0fc2d9700000000000000000000000000000000000000000000000000000000815260040160405180910390fd5b600060026000815480929190610ac590611224565b9190505590508160016000838152602001908152602001600020819055506040518060a001604052808281526020013481526020018481526020013373ffffffffffffffffffffffffffffffffffffffff16815260200160006002811115610b56577f4e487b7100000000000000000000000000000000000000000000000000000000600052602160045260246000fd5b81525060008084815260200190815260200160002060008201518160000155602082015181600101556040820151816002015560608201518160030160006101000a81548173ffffffffffffffffffffffffffffffffffffffff021916908373ffffffffffffffffffffffffffffffffffffffff16021790555060808201518160030160146101000a81548160ff02191690836002811115610c21577f4e487b7100000000000000000000000000000000000000000000000000000000600052602160045260246000fd5b021790555090505050505050565b60008073ffffffffffffffffffffffffffffffffffffffff1660008084815260200190815260200160002060030160009054906101000a900473ffffffffffffffffffffffffffffffffffffffff1673ffffffffffffffffffffffffffffffffffffffff1614159050919050565b60003373ffffffffffffffffffffffffffffffffffffffff1660008084815260200190815260200160002060030160009054906101000a900473ffffffffffffffffffffffffffffffffffffffff1673ffffffffffffffffffffffffffffffffffffffff16149050919050565b80600360006101000a81548173ffffffffffffffffffffffffffffffffffffffff021916908373ffffffffffffffffffffffffffffffffffffffff16021790555050565b6040518060a00160405280600081526020016000815260200160008019168152602001600073ffffffffffffffffffffffffffffffffffffffff16815260200160006002811115610dc8577f4e487b7100000000000000000000000000000000000000000000000000000000600052602160045260246000fd5b81525090565b600081359050610ddd816113be565b92915050565b600081359050610df2816113d5565b92915050565b600081359050610e07816113ec565b92915050565b600081359050610e1c81611403565b92915050565b600060208284031215610e3457600080fd5b6000610e4284828501610dce565b91505092915050565b60008060408385031215610e5e57600080fd5b6000610e6c85828601610de3565b9250506020610e7d85828601610df8565b9150509250929050565b600060208284031215610e9957600080fd5b6000610ea784828501610df8565b91505092915050565b600060208284031215610ec257600080fd5b6000610ed084828501610e0d565b91505092915050565b610ee28161118d565b82525050565b610ef18161118d565b82525050565b610f08610f038261118d565b61126d565b82525050565b610f1f610f1a8261119f565b61127f565b82525050565b610f2e816111cb565b82525050565b610f3d816111cb565b82525050565b610f4c81611212565b82525050565b6000610f5f60168361117c565b9150610f6a82611306565b602082019050919050565b6000610f8260238361117c565b9150610f8d8261132f565b604082019050919050565b6000610fa560108361117c565b9150610fb08261137e565b602082019050919050565b6000610fc8600083611171565b9150610fd3826113a7565b600082019050919050565b60a082016000820151610ff46000850182611046565b5060208201516110076020850182611046565b50604082015161101a6040850182610f25565b50606082015161102d6060850182610ed9565b5060808201516110406080850182610f43565b50505050565b61104f81611208565b82525050565b61105e81611208565b82525050565b60006110708285610f0e565b6010820191506110808284610ef7565b6014820191508190509392505050565b600061109b82610fbb565b9150819050919050565b60006020820190506110ba6000830184610ee8565b92915050565b60006020820190506110d56000830184610f34565b92915050565b600060208201905081810360008301526110f481610f52565b9050919050565b6000602082019050818103600083015261111481610f75565b9050919050565b6000602082019050818103600083015261113481610f98565b9050919050565b600060a0820190506111506000830184610fde565b92915050565b600060208201905061116b6000830184611055565b92915050565b600081905092915050565b600082825260208201905092915050565b6000611198826111e8565b9050919050565b60007fffffffffffffffffffffffffffffffff0000000000000000000000000000000082169050919050565b6000819050919050565b60008190506111e3826113aa565b919050565b600073ffffffffffffffffffffffffffffffffffffffff82169050919050565b6000819050919050565b600061121d826111d5565b9050919050565b600061122f82611208565b91507fffffffffffffffffffffffffffffffffffffffffffffffffffffffffffffffff8214156112625761126161129b565b5b600182019050919050565b600061127882611289565b9050919050565b6000819050919050565b6000611294826112f9565b9050919050565b7f4e487b7100000000000000000000000000000000000000000000000000000000600052601160045260246000fd5b7f4e487b7100000000000000000000000000000000000000000000000000000000600052602160045260246000fd5b60008160601b9050919050565b7f436f75727365206973206e6f7420637265617465642100000000000000000000600082015250565b7f496e76616c696420737461746520666f7220636f75727365206163746976617460008201527f696f6e0000000000000000000000000000000000000000000000000000000000602082015250565b7f5472616e73666572206661696c65642100000000000000000000000000000000600082015250565b50565b600381106113bb576113ba6112ca565b5b50565b6113c78161118d565b81146113d257600080fd5b50565b6113de8161119f565b81146113e957600080fd5b50565b6113f5816111cb565b811461140057600080fd5b50565b61140c81611208565b811461141757600080fd5b5056fea26469706673582212205500518a5ff92c480e033a348a79966a87d57e8e095b08f291d74e1e80839c3c64736f6c63430008040033",
  "immutableReferences": {},
  "source": "// SPDX-License-Identifier: MIT\npragma solidity >=0.4.22 <0.9.0;\n\ncontract CourseMarketplace{\n\n        enum State{\n            Purchased,\n            Activated,\n            Deactivated\n        }\n\n\n        struct Course{\n            uint id;\n            uint price;\n            bytes32 proof;\n            address owner;\n            State state;\n        }\n\n        //mapping of the courseHash to Course data\n        mapping(bytes32=>Course) private ownedCourses;\n        //mapping of the courseId to courseHash \n        mapping(uint=>bytes32) private ownedCourseHash;\n\n        // Number of all courses + id of the course\n        uint private totalOwnedCourses;\n\n        address payable private owner;\n\n        constructor(){\n            setContractOwner(msg.sender);\n          \n        }\n\n        ///Sender is not course owner!    \n        error SenderIsNotCourseOwner();\n        ///Course already purchased!    \n        error CourseHasOwner();\n        ///Only owner has an access!    \n        error OnlyOwner();\n        ///Course is not created!  \n        error CourseIsNotCreated();\n        ///Invalid state for course modification!  \n        error InvalidState();\n\n        modifier onlyOwner(){\n            if(msg.sender!=getContractOwner()){\n                revert OnlyOwner();\n            }\n            // require(msg.sender==getContractOwner(),\"Only owner has an access\");\n            _;\n        }\n\n\n        // courseId - 10 - 0x00000000000000000000000000003130\n        // proof  - 0x0000000000000000000000000000313000000000000000000000000000003130\n        function purchaseCourse(bytes16 courseId,bytes32 proof)external payable \n        {\n        bytes32 courseHash=keccak256(abi.encodePacked(courseId,msg.sender));\n\n        if(hasCourseOwnership(courseHash)){\n            revert CourseHasOwner();\n        }\n        // require(!hasCourseOwnership(courseHash),\"Course already purchased!\");\n\n        uint id = totalOwnedCourses++;\n        ownedCourseHash[id]=courseHash;\n        ownedCourses[courseHash]=Course({\n            id:id,\n            price:msg.value,\n            proof:proof,\n            owner:msg.sender,\n            state:State.Purchased\n        });\n        \n\n        }\n\n\n        function repurchaseCourse(bytes32 courseHash) external payable{\n        if(!isCourseCreated(courseHash)){\n            revert CourseIsNotCreated();\n         }\n        if(!hasCourseOwnership(courseHash)){\n            revert SenderIsNotCourseOwner();\n\n        }\n\n        Course storage course = ownedCourses[courseHash];\n\n        if(course.state!=State.Deactivated){\n            revert InvalidState();\n        }\n        course.state=State.Purchased;\n        course.price=msg.value;\n\n        }\n\n        function activateCourse(bytes32 courseHash) external onlyOwner{\n          if(!isCourseCreated(courseHash)){\n            revert CourseIsNotCreated();\n          }\n        // require(isCourseCreated(courseHash),\"Course is not created!\");\n        Course storage course = ownedCourses[courseHash];\n        if( course.state!=State.Purchased){\n            revert InvalidState();\n        }\n\n        // require(course.state==State.Purchased,\"Invalid state for course activation\");\n        course.state=State.Activated;\n        \n\n        }\n\n        function deactivateCourse(bytes32 courseHash) external onlyOwner{\n        // if(!isCourseCreated(courseHash)){\n        //     revert CourseIsNotCreated();\n        // }\n        require(isCourseCreated(courseHash),\"Course is not created!\");\n        Course storage course = ownedCourses[courseHash];\n        // if(course.state!=State.Purchased){\n        //     revert InvalidState();\n        // }\n\n        require((course.state==State.Purchased),\"Invalid state for course activation\");\n\n        (bool success,)= course.owner.call{value: course.price}(\"\");\n        require(success,\"Transfer failed!\");\n\n        course.state=State.Deactivated;\n        course.price=0;\n        \n\n        }\n        function transferOwnerShip(address newOwner)external onlyOwner {\n            setContractOwner(newOwner);\n        }\n\n        function getCourseCount() external view returns(uint){\n            return totalOwnedCourses;\n        }\n\n        function getCourseHashAtIndex(uint index) external view returns(bytes32){\n        return ownedCourseHash[index];\n        } \n        function getCourseByHash(bytes32 courseHash) external view returns(Course memory){        \n        return ownedCourses[courseHash];\n        } \n        function getContractOwner() public view returns(address){\n            return owner;\n        }\n\n        function setContractOwner(address newOwner)private{\n            owner=payable(newOwner);\n        }\n\n        function isCourseCreated(bytes32 courseHash) private view returns(bool){\n        return ownedCourses[courseHash].owner !=0x0000000000000000000000000000000000000000;\n        }\n\n        function hasCourseOwnership(bytes32 courseHash) private view returns(bool){\n        return ownedCourses[courseHash].owner == msg.sender;\n        }\n}",
  "sourcePath": "P:\\BlockChain\\marketplace-eth\\contracts\\CourseMarketplace.sol",
  "compiler": {
    "name": "solc",
    "version": "0.8.4+commit.c7e474f2.Emscripten.clang"
  },
  "schemaVersion": "3.4.9",
  "updatedAt": "2022-08-29T08:26:42.841Z",
  "networkType": "ethereum",
  "devdoc": {
    "kind": "dev",
    "methods": {},
    "version": 1
  },
  "userdoc": {
    "errors": {
      "CourseHasOwner()": [
        {
          "notice": "Course already purchased!    "
        }
      ],
      "CourseIsNotCreated()": [
        {
          "notice": "Course is not created!  "
        }
      ],
      "InvalidState()": [
        {
          "notice": "Invalid state for course modification!  "
        }
      ],
      "OnlyOwner()": [
        {
          "notice": "Only owner has an access!    "
        }
      ],
      "SenderIsNotCourseOwner()": [
        {
          "notice": "Sender is not course owner!    "
        }
      ]
    },
    "kind": "user",
    "methods": {},
    "version": 1
  }
}