{
  "_format": "hh-sol-artifact-1",
  "contractName": "CourseMarketplace",
  "sourceName": "contracts/CourseMarketplace.sol",
  "abi": [
    {
      "inputs": [],
      "stateMutability": "nonpayable",
      "type": "constructor"
    },
    {
      "inputs": [],
      "name": "CourseHasOwner",
      "type": "error"
    },
    {
      "inputs": [],
      "name": "CourseIsNotCreated",
      "type": "error"
    },
    {
      "inputs": [],
      "name": "InvalidState",
      "type": "error"
    },
    {
      "inputs": [],
      "name": "OnlyOwner",
      "type": "error"
    },
    {
      "inputs": [
        {
          "internalType": "bytes32",
          "name": "courseHash",
          "type": "bytes32"
        }
      ],
      "name": "activateCourse",
      "outputs": [],
      "stateMutability": "nonpayable",
      "type": "function"
    },
    {
      "inputs": [],
      "name": "getContractOwner",
      "outputs": [
        {
          "internalType": "address",
          "name": "",
          "type": "address"
        }
      ],
      "stateMutability": "view",
      "type": "function"
    },
    {
      "inputs": [
        {
          "internalType": "bytes32",
          "name": "courseHash",
          "type": "bytes32"
        }
      ],
      "name": "getCourseByHash",
      "outputs": [
        {
          "components": [
            {
              "internalType": "uint256",
              "name": "id",
              "type": "uint256"
            },
            {
              "internalType": "uint256",
              "name": "price",
              "type": "uint256"
            },
            {
              "internalType": "bytes32",
              "name": "proof",
              "type": "bytes32"
            },
            {
              "internalType": "address",
              "name": "owner",
              "type": "address"
            },
            {
              "internalType": "enum CourseMarketplace.State",
              "name": "state",
              "type": "uint8"
            }
          ],
          "internalType": "struct CourseMarketplace.Course",
          "name": "",
          "type": "tuple"
        }
      ],
      "stateMutability": "view",
      "type": "function"
    },
    {
      "inputs": [],
      "name": "getCourseCount",
      "outputs": [
        {
          "internalType": "uint256",
          "name": "",
          "type": "uint256"
        }
      ],
      "stateMutability": "view",
      "type": "function"
    },
    {
      "inputs": [
        {
          "internalType": "uint256",
          "name": "index",
          "type": "uint256"
        }
      ],
      "name": "getCourseHashAtIndex",
      "outputs": [
        {
          "internalType": "bytes32",
          "name": "",
          "type": "bytes32"
        }
      ],
      "stateMutability": "view",
      "type": "function"
    },
    {
      "inputs": [
        {
          "internalType": "bytes16",
          "name": "courseId",
          "type": "bytes16"
        },
        {
          "internalType": "bytes32",
          "name": "proof",
          "type": "bytes32"
        }
      ],
      "name": "purchaseCourse",
      "outputs": [],
      "stateMutability": "payable",
      "type": "function"
    },
    {
      "inputs": [
        {
          "internalType": "address",
          "name": "newOwner",
          "type": "address"
        }
      ],
      "name": "transferOwnerShip",
      "outputs": [],
      "stateMutability": "nonpayable",
      "type": "function"
    }
  ],
  "bytecode": "0x608060405234801561001057600080fd5b506100203361002560201b60201c565b610069565b80600360006101000a81548173ffffffffffffffffffffffffffffffffffffffff021916908373ffffffffffffffffffffffffffffffffffffffff16021790555050565b610ca7806100786000396000f3fe6080604052600436106100705760003560e01c80636d11290b1161004e5780636d11290b146101065780638863dd1a1461014357806396cfda061461016c578063d76821cb1461019757610070565b80633926257214610075578063442890d51461009e57806362e4e6ac146100c9575b600080fd5b34801561008157600080fd5b5061009c6004803603810190610097919061080c565b6101b3565b005b3480156100aa57600080fd5b506100b3610314565b6040516100c0919061087a565b60405180910390f35b3480156100d557600080fd5b506100f060048036038101906100eb919061080c565b61033e565b6040516100fd91906109ab565b60405180910390f35b34801561011257600080fd5b5061012d600480360381019061012891906109f2565b610419565b60405161013a9190610a2e565b60405180910390f35b34801561014f57600080fd5b5061016a60048036038101906101659190610a75565b610436565b005b34801561017857600080fd5b506101816104ae565b60405161018e9190610ab1565b60405180910390f35b6101b160048036038101906101ac9190610b24565b6104b8565b005b6101bb610314565b73ffffffffffffffffffffffffffffffffffffffff163373ffffffffffffffffffffffffffffffffffffffff161461021f576040517f5fc483c500000000000000000000000000000000000000000000000000000000815260040160405180910390fd5b61022881610658565b61025e576040517f4db0c48300000000000000000000000000000000000000000000000000000000815260040160405180910390fd5b6000806000838152602001908152602001600020905060018160030160146101000a81548160ff0219169083600281111561029c5761029b6108cc565b5b0217905550600060028111156102b5576102b46108cc565b5b8160030160149054906101000a900460ff1660028111156102d9576102d86108cc565b5b14610310576040517fbaf3f0f700000000000000000000000000000000000000000000000000000000815260040160405180910390fd5b5050565b6000600360009054906101000a900473ffffffffffffffffffffffffffffffffffffffff16905090565b610346610777565b6000808381526020019081526020016000206040518060a00160405290816000820154815260200160018201548152602001600282015481526020016003820160009054906101000a900473ffffffffffffffffffffffffffffffffffffffff1673ffffffffffffffffffffffffffffffffffffffff1673ffffffffffffffffffffffffffffffffffffffff1681526020016003820160149054906101000a900460ff1660028111156103fc576103fb6108cc565b5b600281111561040e5761040d6108cc565b5b815250509050919050565b600060016000838152602001908152602001600020549050919050565b61043e610314565b73ffffffffffffffffffffffffffffffffffffffff163373ffffffffffffffffffffffffffffffffffffffff16146104a2576040517f5fc483c500000000000000000000000000000000000000000000000000000000815260040160405180910390fd5b6104ab816106c6565b50565b6000600254905090565b600082336040516020016104cd929190610bcd565b6040516020818303038152906040528051906020012090506104ee8161070a565b15610525576040517fb0fc2d9700000000000000000000000000000000000000000000000000000000815260040160405180910390fd5b60006002600081548092919061053a90610c28565b9190505590508160016000838152602001908152602001600020819055506040518060a001604052808281526020013481526020018481526020013373ffffffffffffffffffffffffffffffffffffffff168152602001600060028111156105a5576105a46108cc565b5b81525060008084815260200190815260200160002060008201518160000155602082015181600101556040820151816002015560608201518160030160006101000a81548173ffffffffffffffffffffffffffffffffffffffff021916908373ffffffffffffffffffffffffffffffffffffffff16021790555060808201518160030160146101000a81548160ff0219169083600281111561064a576106496108cc565b5b021790555090505050505050565b60008073ffffffffffffffffffffffffffffffffffffffff1660008084815260200190815260200160002060030160009054906101000a900473ffffffffffffffffffffffffffffffffffffffff1673ffffffffffffffffffffffffffffffffffffffff1614159050919050565b80600360006101000a81548173ffffffffffffffffffffffffffffffffffffffff021916908373ffffffffffffffffffffffffffffffffffffffff16021790555050565b60003373ffffffffffffffffffffffffffffffffffffffff1660008084815260200190815260200160002060030160009054906101000a900473ffffffffffffffffffffffffffffffffffffffff1673ffffffffffffffffffffffffffffffffffffffff16149050919050565b6040518060a00160405280600081526020016000815260200160008019168152602001600073ffffffffffffffffffffffffffffffffffffffff168152602001600060028111156107cb576107ca6108cc565b5b81525090565b600080fd5b6000819050919050565b6107e9816107d6565b81146107f457600080fd5b50565b600081359050610806816107e0565b92915050565b600060208284031215610822576108216107d1565b5b6000610830848285016107f7565b91505092915050565b600073ffffffffffffffffffffffffffffffffffffffff82169050919050565b600061086482610839565b9050919050565b61087481610859565b82525050565b600060208201905061088f600083018461086b565b92915050565b6000819050919050565b6108a881610895565b82525050565b6108b7816107d6565b82525050565b6108c681610859565b82525050565b7f4e487b7100000000000000000000000000000000000000000000000000000000600052602160045260246000fd5b6003811061090c5761090b6108cc565b5b50565b600081905061091d826108fb565b919050565b600061092d8261090f565b9050919050565b61093d81610922565b82525050565b60a082016000820151610959600085018261089f565b50602082015161096c602085018261089f565b50604082015161097f60408501826108ae565b50606082015161099260608501826108bd565b5060808201516109a56080850182610934565b50505050565b600060a0820190506109c06000830184610943565b92915050565b6109cf81610895565b81146109da57600080fd5b50565b6000813590506109ec816109c6565b92915050565b600060208284031215610a0857610a076107d1565b5b6000610a16848285016109dd565b91505092915050565b610a28816107d6565b82525050565b6000602082019050610a436000830184610a1f565b92915050565b610a5281610859565b8114610a5d57600080fd5b50565b600081359050610a6f81610a49565b92915050565b600060208284031215610a8b57610a8a6107d1565b5b6000610a9984828501610a60565b91505092915050565b610aab81610895565b82525050565b6000602082019050610ac66000830184610aa2565b92915050565b60007fffffffffffffffffffffffffffffffff0000000000000000000000000000000082169050919050565b610b0181610acc565b8114610b0c57600080fd5b50565b600081359050610b1e81610af8565b92915050565b60008060408385031215610b3b57610b3a6107d1565b5b6000610b4985828601610b0f565b9250506020610b5a858286016107f7565b9150509250929050565b6000819050919050565b610b7f610b7a82610acc565b610b64565b82525050565b60008160601b9050919050565b6000610b9d82610b85565b9050919050565b6000610baf82610b92565b9050919050565b610bc7610bc282610859565b610ba4565b82525050565b6000610bd98285610b6e565b601082019150610be98284610bb6565b6014820191508190509392505050565b7f4e487b7100000000000000000000000000000000000000000000000000000000600052601160045260246000fd5b6000610c3382610895565b91507fffffffffffffffffffffffffffffffffffffffffffffffffffffffffffffffff821415610c6657610c65610bf9565b5b60018201905091905056fea2646970667358221220d23cea17e79f1512923bfecd4eb32bbddda0e3b1bee10fe64fad95dc2f96d65e64736f6c63430008090033",
  "linkReferences": {},
  "deployedLinkReferences": {}
}